{"abi":[{"type":"function","name":"MAX_ANSWER_LENGTH","inputs":[],"outputs":[{"name":"","type":"uint256","internalType":"uint256"}],"stateMutability":"view"},{"type":"function","name":"MAX_SUBMISSIONS","inputs":[],"outputs":[{"name":"","type":"uint256","internalType":"uint256"}],"stateMutability":"view"},{"type":"function","name":"bounties","inputs":[{"name":"","type":"uint256","internalType":"uint256"}],"outputs":[{"name":"owner","type":"address","internalType":"address"},{"name":"title","type":"string","internalType":"string"},{"name":"rubric","type":"string","internalType":"string"},{"name":"reward","type":"uint256","internalType":"uint256"},{"name":"deadline","type":"uint256","internalType":"uint256"},{"name":"judged","type":"bool","internalType":"bool"},{"name":"finalized","type":"bool","internalType":"bool"},{"name":"aiReview","type":"bytes","internalType":"bytes"},{"name":"winnerIndex","type":"uint256","internalType":"uint256"}],"stateMutability":"view"},{"type":"function","name":"createBounty","inputs":[{"name":"title","type":"string","internalType":"string"},{"name":"rubric","type":"string","internalType":"string"},{"name":"deadline","type":"uint256","internalType":"uint256"}],"outputs":[{"name":"bountyId","type":"uint256","internalType":"uint256"}],"stateMutability":"payable"},{"type":"function","name":"finalizeWinner","inputs":[{"name":"bountyId","type":"uint256","internalType":"uint256"},{"name":"winnerIndex","type":"uint256","internalType":"uint256"}],"outputs":[],"stateMutability":"nonpayable"},{"type":"function","name":"getBounty","inputs":[{"name":"bountyId","type":"uint256","internalType":"uint256"}],"outputs":[{"name":"owner","type":"address","internalType":"address"},{"name":"title","type":"string","internalType":"string"},{"name":"rubric","type":"string","internalType":"string"},{"name":"reward","type":"uint256","internalType":"uint256"},{"name":"deadline","type":"uint256","internalType":"uint256"},{"name":"judged","type":"bool","internalType":"bool"},{"name":"finalized","type":"bool","internalType":"bool"},{"name":"submissionCount","type":"uint256","internalType":"uint256"},{"name":"winnerIndex","type":"uint256","internalType":"uint256"},{"name":"aiReview","type":"bytes","internalType":"bytes"}],"stateMutability":"view"},{"type":"function","name":"getSubmission","inputs":[{"name":"bountyId","type":"uint256","internalType":"uint256"},{"name":"index","type":"uint256","internalType":"uint256"}],"outputs":[{"name":"submitter","type":"address","internalType":"address"},{"name":"answer","type":"string","internalType":"string"}],"stateMutability":"view"},{"type":"function","name":"judgeAll","inputs":[{"name":"bountyId","type":"uint256","internalType":"uint256"},{"name":"llmInput","type":"bytes","internalType":"bytes"}],"outputs":[],"stateMutability":"nonpayable"},{"type":"function","name":"nextBountyId","inputs":[],"outputs":[{"name":"","type":"uint256","internalType":"uint256"}],"stateMutability":"view"},{"type":"function","name":"submitAnswer","inputs":[{"name":"bountyId","type":"uint256","internalType":"uint256"},{"name":"answer","type":"string","internalType":"string"}],"outputs":[],"stateMutability":"nonpayable"},{"type":"event","name":"AllAnswersJudged","inputs":[{"name":"bountyId","type":"uint256","indexed":true,"internalType":"uint256"},{"name":"aiReview","type":"bytes","indexed":false,"internalType":"bytes"}],"anonymous":false},{"type":"event","name":"AnswerSubmitted","inputs":[{"name":"bountyId","type":"uint256","indexed":true,"internalType":"uint256"},{"name":"submissionIndex","type":"uint256","indexed":true,"internalType":"uint256"},{"name":"submitter","type":"address","indexed":true,"internalType":"address"}],"anonymous":false},{"type":"event","name":"BountyCreated","inputs":[{"name":"bountyId","type":"uint256","indexed":true,"internalType":"uint256"},{"name":"owner","type":"address","indexed":true,"internalType":"address"},{"name":"title","type":"string","indexed":false,"internalType":"string"},{"name":"reward","type":"uint256","indexed":false,"internalType":"uint256"},{"name":"deadline","type":"uint256","indexed":false,"internalType":"uint256"}],"anonymous":false},{"type":"event","name":"WinnerFinalized","inputs":[{"name":"bountyId","type":"uint256","indexed":true,"internalType":"uint256"},{"name":"winnerIndex","type":"uint256","indexed":true,"internalType":"uint256"},{"name":"winner","type":"address","indexed":true,"internalType":"address"},{"name":"reward","type":"uint256","indexed":false,"internalType":"uint256"}],"anonymous":false}],"bytecode":{"object":"0x608060405260015f5573532f0df0896f353d8c3dd8cc134e8129da2a394860015f6101000a81548173ffffffffffffffffffffffffffffffffffffffff021916908373ffffffffffffffffffffffffffffffffffffffff1602179055503480156066575f5ffd5b50612b65806100745f395ff3fe608060405260043610610090575f3560e01c8063d8964ee911610058578063d8964ee91461017b578063dc2f8744146101a3578063ee8c4bbf146101e7578063fd14fad41461022c578063fd3a83291461025657610090565b806301fa3bec146100945780632bfa7d60146100bc5780635a7722f1146100ec5780638e78968314610114578063b7ed70711461013e575b5f5ffd5b34801561009f575f5ffd5b506100ba60048036038101906100b591906116f7565b610280565b005b6100d660048036038101906100d19190611754565b6105bd565b6040516100e391906117f4565b60405180910390f35b3480156100f7575f5ffd5b50610112600480360381019061010d919061180d565b61072e565b005b34801561011f575f5ffd5b50610128610aa6565b60405161013591906117f4565b60405180910390f35b348015610149575f5ffd5b50610164600480360381019061015f919061180d565b610aab565b6040516101729291906118fa565b60405180910390f35b348015610186575f5ffd5b506101a1600480360381019061019c919061197d565b610c90565b005b3480156101ae575f5ffd5b506101c960048036038101906101c491906119da565b610ffa565b6040516101de99989796959493929190611a71565b60405180910390f35b3480156101f2575f5ffd5b5061020d600480360381019061020891906119da565b61120e565b6040516102239a99989796959493929190611b11565b60405180910390f35b348015610237575f5ffd5b506102406114f9565b60405161024d91906117f4565b60405180910390f35b348015610261575f5ffd5b5061026a6114fe565b60405161027791906117f4565b60405180910390f35b825f73ffffffffffffffffffffffffffffffffffffffff1660025f8381526020019081526020015f205f015f9054906101000a900473ffffffffffffffffffffffffffffffffffffffff1673ffffffffffffffffffffffffffffffffffffffff1603610321576040517f08c379a000000000000000000000000000000000000000000000000000000000815260040161031890611c0a565b60405180910390fd5b5f60025f8681526020019081526020015f209050806005015f9054906101000a900460ff1615610386576040517f08c379a000000000000000000000000000000000000000000000000000000000815260040161037d90611c72565b60405180910390fd5b8060050160019054906101000a900460ff16156103d8576040517f08c379a00000000000000000000000000000000000000000000000000000000081526004016103cf90611cda565b60405180910390fd5b600a816008018054905010610422576040517f08c379a000000000000000000000000000000000000000000000000000000000815260040161041990611d42565b60405180910390fd5b6107d084849050111561046a576040517f08c379a000000000000000000000000000000000000000000000000000000000815260040161046190611daa565b60405180910390fd5b8060080160405180604001604052803373ffffffffffffffffffffffffffffffffffffffff16815260200186868080601f0160208091040260200160405190810160405280939291908181526020018383808284375f81840152601f19601f82011690508083019250505050505050815250908060018154018082558091505060019003905f5260205f2090600202015f909190919091505f820151815f015f6101000a81548173ffffffffffffffffffffffffffffffffffffffff021916908373ffffffffffffffffffffffffffffffffffffffff160217905550602082015181600101908161055b9190612003565b5050503373ffffffffffffffffffffffffffffffffffffffff166001826008018054905061058991906120ff565b867f2193ba3aacf922823442f915857f71c32e5649130b71498a48dad0ce65f9749060405160405180910390a45050505050565b5f5f3411610600576040517f08c379a00000000000000000000000000000000000000000000000000000000081526004016105f79061217c565b60405180910390fd5b5f5f8154809291906106119061219a565b9190505590505f60025f8381526020019081526020015f20905033815f015f6101000a81548173ffffffffffffffffffffffffffffffffffffffff021916908373ffffffffffffffffffffffffffffffffffffffff160217905550868682600101918261067f9291906121eb565b5084848260020191826106939291906121eb565b503481600301819055508281600401819055507fffffffffffffffffffffffffffffffffffffffffffffffffffffffffffffffff81600701819055503373ffffffffffffffffffffffffffffffffffffffff16827f4e9ff8debce04524518777fdf120513b8f7e1f434da1099fd190d1aae0d495b68989348860405161071c94939291906122f2565b60405180910390a35095945050505050565b815f73ffffffffffffffffffffffffffffffffffffffff1660025f8381526020019081526020015f205f015f9054906101000a900473ffffffffffffffffffffffffffffffffffffffff1673ffffffffffffffffffffffffffffffffffffffff16036107cf576040517f08c379a00000000000000000000000000000000000000000000000000000000081526004016107c690611c0a565b60405180910390fd5b8260025f8281526020019081526020015f205f015f9054906101000a900473ffffffffffffffffffffffffffffffffffffffff1673ffffffffffffffffffffffffffffffffffffffff163373ffffffffffffffffffffffffffffffffffffffff1614610870576040517f08c379a00000000000000000000000000000000000000000000000000000000081526004016108679061237a565b60405180910390fd5b5f60025f8681526020019081526020015f209050806005015f9054906101000a900460ff166108d4576040517f08c379a00000000000000000000000000000000000000000000000000000000081526004016108cb906123e2565b60405180910390fd5b8060050160019054906101000a900460ff1615610926576040517f08c379a000000000000000000000000000000000000000000000000000000000815260040161091d90611cda565b60405180910390fd5b60018160050160016101000a81548160ff0219169083151502179055508381600701819055505f81600801858154811061096357610962612400565b5b905f5260205f2090600202015f015f9054906101000a900473ffffffffffffffffffffffffffffffffffffffff1690505f826003015490505f83600301819055505f8273ffffffffffffffffffffffffffffffffffffffff16826040516109c99061245a565b5f6040518083038185875af1925050503d805f8114610a03576040519150601f19603f3d011682016040523d82523d5f602084013e610a08565b606091505b5050905080610a4c576040517f08c379a0000000000000000000000000000000000000000000000000000000008152600401610a43906124b8565b60405180910390fd5b8273ffffffffffffffffffffffffffffffffffffffff1687897f2eb0120759ae6dd1505f3f092609ec7e75433fb2401ad648ebeb5bd4bd55e5b685604051610a9491906117f4565b60405180910390a45050505050505050565b600a81565b5f6060835f73ffffffffffffffffffffffffffffffffffffffff1660025f8381526020019081526020015f205f015f9054906101000a900473ffffffffffffffffffffffffffffffffffffffff1673ffffffffffffffffffffffffffffffffffffffff1603610b4f576040517f08c379a0000000000000000000000000000000000000000000000000000000008152600401610b4690611c0a565b60405180910390fd5b5f60025f8781526020019081526020015f20905080600801805490508510610bac576040517f08c379a0000000000000000000000000000000000000000000000000000000008152600401610ba390612520565b60405180910390fd5b5f816008018681548110610bc357610bc2612400565b5b905f5260205f2090600202019050805f015f9054906101000a900473ffffffffffffffffffffffffffffffffffffffff1681600101808054610c0490611e22565b80601f0160208091040260200160405190810160405280929190818152602001828054610c3090611e22565b8015610c7b5780601f10610c5257610100808354040283529160200191610c7b565b820191905f5260205f20905b815481529060010190602001808311610c5e57829003601f168201915b50505050509050945094505050509250929050565b825f73ffffffffffffffffffffffffffffffffffffffff1660025f8381526020019081526020015f205f015f9054906101000a900473ffffffffffffffffffffffffffffffffffffffff1673ffffffffffffffffffffffffffffffffffffffff1603610d31576040517f08c379a0000000000000000000000000000000000000000000000000000000008152600401610d2890611c0a565b60405180910390fd5b8360025f8281526020019081526020015f205f015f9054906101000a900473ffffffffffffffffffffffffffffffffffffffff1673ffffffffffffffffffffffffffffffffffffffff163373ffffffffffffffffffffffffffffffffffffffff1614610dd2576040517f08c379a0000000000000000000000000000000000000000000000000000000008152600401610dc99061237a565b60405180910390fd5b5f60025f8781526020019081526020015f209050806005015f9054906101000a900460ff1615610e37576040517f08c379a0000000000000000000000000000000000000000000000000000000008152600401610e2e90611c72565b60405180910390fd5b8060050160019054906101000a900460ff1615610e89576040517f08c379a0000000000000000000000000000000000000000000000000000000008152600401610e8090611cda565b60405180910390fd5b5f816008018054905011610ed2576040517f08c379a0000000000000000000000000000000000000000000000000000000008152600401610ec990612588565b60405180910390fd5b5f610f2261080287878080601f0160208091040260200160405190810160405280939291908181526020018383808284375f81840152601f19601f82011690508083019250505050505050611504565b90505f5f5f83806020019051810190610f3b9190612818565b509350509250925082158190610f87576040517f08c379a0000000000000000000000000000000000000000000000000000000008152600401610f7e91906128ff565b60405180910390fd5b506001856005015f6101000a81548160ff02191690831515021790555081856006019081610fb59190612984565b50897fb51288ae628dca25614026175dc22a78631acc1a31f034c68c3fa241ca0fd05c83604051610fe69190612a53565b60405180910390a250505050505050505050565b6002602052805f5260405f205f91509050805f015f9054906101000a900473ffffffffffffffffffffffffffffffffffffffff169080600101805461103e90611e22565b80601f016020809104026020016040519081016040528092919081815260200182805461106a90611e22565b80156110b55780601f1061108c576101008083540402835291602001916110b5565b820191905f5260205f20905b81548152906001019060200180831161109857829003601f168201915b5050505050908060020180546110ca90611e22565b80601f01602080910402602001604051908101604052809291908181526020018280546110f690611e22565b80156111415780601f1061111857610100808354040283529160200191611141565b820191905f5260205f20905b81548152906001019060200180831161112457829003601f168201915b505050505090806003015490806004015490806005015f9054906101000a900460ff16908060050160019054906101000a900460ff169080600601805461118790611e22565b80601f01602080910402602001604051908101604052809291908181526020018280546111b390611e22565b80156111fe5780601f106111d5576101008083540402835291602001916111fe565b820191905f5260205f20905b8154815290600101906020018083116111e157829003601f168201915b5050505050908060070154905089565b5f6060805f5f5f5f5f5f60608a5f73ffffffffffffffffffffffffffffffffffffffff1660025f8381526020019081526020015f205f015f9054906101000a900473ffffffffffffffffffffffffffffffffffffffff1673ffffffffffffffffffffffffffffffffffffffff16036112bb576040517f08c379a00000000000000000000000000000000000000000000000000000000081526004016112b290611c0a565b60405180910390fd5b5f60025f8e81526020019081526020015f209050805f015f9054906101000a900473ffffffffffffffffffffffffffffffffffffffff16816001018260020183600301548460040154856005015f9054906101000a900460ff168660050160019054906101000a900460ff16876008018054905088600701548960060188805461134490611e22565b80601f016020809104026020016040519081016040528092919081815260200182805461137090611e22565b80156113bb5780601f10611392576101008083540402835291602001916113bb565b820191905f5260205f20905b81548152906001019060200180831161139e57829003601f168201915b505050505098508780546113ce90611e22565b80601f01602080910402602001604051908101604052809291908181526020018280546113fa90611e22565b80156114455780601f1061141c57610100808354040283529160200191611445565b820191905f5260205f20905b81548152906001019060200180831161142857829003601f168201915b5050505050975080805461145890611e22565b80601f016020809104026020016040519081016040528092919081815260200182805461148490611e22565b80156114cf5780601f106114a6576101008083540402835291602001916114cf565b820191905f5260205f20905b8154815290600101906020018083116114b257829003601f168201915b505050505090509b509b509b509b509b509b509b509b509b509b5050509193959799509193959799565b5f5481565b6107d081565b60605f5f8473ffffffffffffffffffffffffffffffffffffffff168460405161152d9190612aa3565b5f604051808303815f865af19150503d805f8114611566576040519150601f19603f3d011682016040523d82523d5f602084013e61156b565b606091505b50915091508161157d57805160208201fd5b61080173ffffffffffffffffffffffffffffffffffffffff168573ffffffffffffffffffffffffffffffffffffffff1614806115e6575061080273ffffffffffffffffffffffffffffffffffffffff168573ffffffffffffffffffffffffffffffffffffffff16145b8061161e575061081b73ffffffffffffffffffffffffffffffffffffffff168573ffffffffffffffffffffffffffffffffffffffff16145b15611646575f818060200190518101906116389190612ab9565b91505080935050505061164c565b80925050505b92915050565b5f604051905090565b5f5ffd5b5f5ffd5b5f819050919050565b61167581611663565b811461167f575f5ffd5b50565b5f813590506116908161166c565b92915050565b5f5ffd5b5f5ffd5b5f5ffd5b5f5f83601f8401126116b7576116b6611696565b5b8235905067ffffffffffffffff8111156116d4576116d361169a565b5b6020830191508360018202830111156116f0576116ef61169e565b5b9250929050565b5f5f5f6040848603121561170e5761170d61165b565b5b5f61171b86828701611682565b935050602084013567ffffffffffffffff81111561173c5761173b61165f565b5b611748868287016116a2565b92509250509250925092565b5f5f5f5f5f6060868803121561176d5761176c61165b565b5b5f86013567ffffffffffffffff81111561178a5761178961165f565b5b611796888289016116a2565b9550955050602086013567ffffffffffffffff8111156117b9576117b861165f565b5b6117c5888289016116a2565b935093505060406117d888828901611682565b9150509295509295909350565b6117ee81611663565b82525050565b5f6020820190506118075f8301846117e5565b92915050565b5f5f604083850312156118235761182261165b565b5b5f61183085828601611682565b925050602061184185828601611682565b9150509250929050565b5f73ffffffffffffffffffffffffffffffffffffffff82169050919050565b5f6118748261184b565b9050919050565b6118848161186a565b82525050565b5f81519050919050565b5f82825260208201905092915050565b8281835e5f83830152505050565b5f601f19601f8301169050919050565b5f6118cc8261188a565b6118d68185611894565b93506118e68185602086016118a4565b6118ef816118b2565b840191505092915050565b5f60408201905061190d5f83018561187b565b818103602083015261191f81846118c2565b90509392505050565b5f5f83601f84011261193d5761193c611696565b5b8235905067ffffffffffffffff81111561195a5761195961169a565b5b6020830191508360018202830111156119765761197561169e565b5b9250929050565b5f5f5f604084860312156119945761199361165b565b5b5f6119a186828701611682565b935050602084013567ffffffffffffffff8111156119c2576119c161165f565b5b6119ce86828701611928565b92509250509250925092565b5f602082840312156119ef576119ee61165b565b5b5f6119fc84828501611682565b91505092915050565b5f8115159050919050565b611a1981611a05565b82525050565b5f81519050919050565b5f82825260208201905092915050565b5f611a4382611a1f565b611a4d8185611a29565b9350611a5d8185602086016118a4565b611a66816118b2565b840191505092915050565b5f61012082019050611a855f83018c61187b565b8181036020830152611a97818b6118c2565b90508181036040830152611aab818a6118c2565b9050611aba60608301896117e5565b611ac760808301886117e5565b611ad460a0830187611a10565b611ae160c0830186611a10565b81810360e0830152611af38185611a39565b9050611b036101008301846117e5565b9a9950505050505050505050565b5f61014082019050611b255f83018d61187b565b8181036020830152611b37818c6118c2565b90508181036040830152611b4b818b6118c2565b9050611b5a606083018a6117e5565b611b6760808301896117e5565b611b7460a0830188611a10565b611b8160c0830187611a10565b611b8e60e08301866117e5565b611b9c6101008301856117e5565b818103610120830152611baf8184611a39565b90509b9a5050505050505050505050565b7f626f756e7479206e6f7420666f756e64000000000000000000000000000000005f82015250565b5f611bf4601083611894565b9150611bff82611bc0565b602082019050919050565b5f6020820190508181035f830152611c2181611be8565b9050919050565b7f616c7265616479206a75646765640000000000000000000000000000000000005f82015250565b5f611c5c600e83611894565b9150611c6782611c28565b602082019050919050565b5f6020820190508181035f830152611c8981611c50565b9050919050565b7f616c72656164792066696e616c697a65640000000000000000000000000000005f82015250565b5f611cc4601183611894565b9150611ccf82611c90565b602082019050919050565b5f6020820190508181035f830152611cf181611cb8565b9050919050565b7f746f6f206d616e79207375626d697373696f6e730000000000000000000000005f82015250565b5f611d2c601483611894565b9150611d3782611cf8565b602082019050919050565b5f6020820190508181035f830152611d5981611d20565b9050919050565b7f616e7377657220746f6f206c6f6e6700000000000000000000000000000000005f82015250565b5f611d94600f83611894565b9150611d9f82611d60565b602082019050919050565b5f6020820190508181035f830152611dc181611d88565b9050919050565b7f4e487b71000000000000000000000000000000000000000000000000000000005f52604160045260245ffd5b7f4e487b71000000000000000000000000000000000000000000000000000000005f52602260045260245ffd5b5f6002820490506001821680611e3957607f821691505b602082108103611e4c57611e4b611df5565b5b50919050565b5f819050815f5260205f209050919050565b5f6020601f8301049050919050565b5f82821b905092915050565b5f60088302611eae7fffffffffffffffffffffffffffffffffffffffffffffffffffffffffffffffff82611e73565b611eb88683611e73565b95508019841693508086168417925050509392505050565b5f819050919050565b5f611ef3611eee611ee984611663565b611ed0565b611663565b9050919050565b5f819050919050565b611f0c83611ed9565b611f20611f1882611efa565b848454611e7f565b825550505050565b5f5f905090565b611f37611f28565b611f42818484611f03565b505050565b5f5b82811015611f6857611f5d5f828401611f2f565b600181019050611f49565b505050565b601f821115611fbb5782821115611fba57611f8781611e52565b611f9083611e64565b611f9985611e64565b6020861015611fa6575f90505b808301611fb582840382611f47565b505050505b5b505050565b5f82821c905092915050565b5f611fdb5f1984600802611fc0565b1980831691505092915050565b5f611ff38383611fcc565b9150826002028217905092915050565b61200c8261188a565b67ffffffffffffffff81111561202557612024611dc8565b5b61202f8254611e22565b61203a828285611f6d565b5f60209050601f83116001811461206b575f8415612059578287015190505b6120638582611fe8565b8655506120ca565b601f19841661207986611e52565b5f5b828110156120a05784890151825560018201915060208501945060208101905061207b565b868310156120bd57848901516120b9601f891682611fcc565b8355505b6001600288020188555050505b505050505050565b7f4e487b71000000000000000000000000000000000000000000000000000000005f52601160045260245ffd5b5f61210982611663565b915061211483611663565b925082820390508181111561212c5761212b6120d2565b5b92915050565b7f72657761726420726571756972656400000000000000000000000000000000005f82015250565b5f612166600f83611894565b915061217182612132565b602082019050919050565b5f6020820190508181035f8301526121938161215a565b9050919050565b5f6121a482611663565b91507fffffffffffffffffffffffffffffffffffffffffffffffffffffffffffffffff82036121d6576121d56120d2565b5b600182019050919050565b5f82905092915050565b6121f583836121e1565b67ffffffffffffffff81111561220e5761220d611dc8565b5b6122188254611e22565b612223828285611f6d565b5f601f831160018114612250575f841561223e578287013590505b6122488582611fe8565b8655506122af565b601f19841661225e86611e52565b5f5b8281101561228557848901358255600182019150602085019450602081019050612260565b868310156122a2578489013561229e601f891682611fcc565b8355505b6001600288020188555050505b50505050505050565b828183375f83830152505050565b5f6122d18385611894565b93506122de8385846122b8565b6122e7836118b2565b840190509392505050565b5f6060820190508181035f83015261230b8186886122c6565b905061231a60208301856117e5565b61232760408301846117e5565b95945050505050565b7f6e6f7420626f756e7479206f776e6572000000000000000000000000000000005f82015250565b5f612364601083611894565b915061236f82612330565b602082019050919050565b5f6020820190508181035f83015261239181612358565b9050919050565b7f6e6f74206a7564676564207965740000000000000000000000000000000000005f82015250565b5f6123cc600e83611894565b91506123d782612398565b602082019050919050565b5f6020820190508181035f8301526123f9816123c0565b9050919050565b7f4e487b71000000000000000000000000000000000000000000000000000000005f52603260045260245ffd5b5f81905092915050565b50565b5f6124455f8361242d565b915061245082612437565b5f82019050919050565b5f6124648261243a565b9150819050919050565b7f7061796d656e74206661696c65640000000000000000000000000000000000005f82015250565b5f6124a2600e83611894565b91506124ad8261246e565b602082019050919050565b5f6020820190508181035f8301526124cf81612496565b9050919050565b7f696e76616c696420696e646578000000000000000000000000000000000000005f82015250565b5f61250a600d83611894565b9150612515826124d6565b602082019050919050565b5f6020820190508181035f830152612537816124fe565b9050919050565b7f6e6f207375626d697373696f6e730000000000000000000000000000000000005f82015250565b5f612572600e83611894565b915061257d8261253e565b602082019050919050565b5f6020820190508181035f83015261259f81612566565b9050919050565b6125af81611a05565b81146125b9575f5ffd5b50565b5f815190506125ca816125a6565b92915050565b5f5ffd5b6125dd826118b2565b810181811067ffffffffffffffff821117156125fc576125fb611dc8565b5b80604052505050565b5f61260e611652565b905061261a82826125d4565b919050565b5f67ffffffffffffffff82111561263957612638611dc8565b5b612642826118b2565b9050602081019050919050565b5f61266161265c8461261f565b612605565b90508281526020810184848401111561267d5761267c6125d0565b5b6126888482856118a4565b509392505050565b5f82601f8301126126a4576126a3611696565b5b81516126b484826020860161264f565b91505092915050565b5f67ffffffffffffffff8211156126d7576126d6611dc8565b5b6126e0826118b2565b9050602081019050919050565b5f6126ff6126fa846126bd565b612605565b90508281526020810184848401111561271b5761271a6125d0565b5b6127268482856118a4565b509392505050565b5f82601f83011261274257612741611696565b5b81516127528482602086016126ed565b91505092915050565b5f5ffd5b5f5ffd5b5f606082840312156127785761277761275b565b5b6127826060612605565b90505f82015167ffffffffffffffff8111156127a1576127a061275f565b5b6127ad8482850161272e565b5f83015250602082015167ffffffffffffffff8111156127d0576127cf61275f565b5b6127dc8482850161272e565b602083015250604082015167ffffffffffffffff811115612800576127ff61275f565b5b61280c8482850161272e565b60408301525092915050565b5f5f5f5f5f60a086880312156128315761283061165b565b5b5f61283e888289016125bc565b955050602086015167ffffffffffffffff81111561285f5761285e61165f565b5b61286b88828901612690565b945050604086015167ffffffffffffffff81111561288c5761288b61165f565b5b61289888828901612690565b935050606086015167ffffffffffffffff8111156128b9576128b861165f565b5b6128c58882890161272e565b925050608086015167ffffffffffffffff8111156128e6576128e561165f565b5b6128f288828901612763565b9150509295509295909350565b5f6020820190508181035f83015261291781846118c2565b905092915050565b5f819050815f5260205f209050919050565b601f82111561297f578282111561297e5761294b8161291f565b61295483611e64565b61295d85611e64565b602086101561296a575f90505b80830161297982840382611f47565b505050505b5b505050565b61298d82611a1f565b67ffffffffffffffff8111156129a6576129a5611dc8565b5b6129b08254611e22565b6129bb828285612931565b5f60209050601f8311600181146129ec575f84156129da578287015190505b6129e48582611fe8565b865550612a4b565b601f1984166129fa8661291f565b5f5b82811015612a21578489015182556001820191506020850194506020810190506129fc565b86831015612a3e5784890151612a3a601f891682611fcc565b8355505b6001600288020188555050505b505050505050565b5f6020820190508181035f830152612a6b8184611a39565b905092915050565b5f612a7d82611a1f565b612a87818561242d565b9350612a978185602086016118a4565b80840191505092915050565b5f612aae8284612a73565b915081905092915050565b5f5f60408385031215612acf57612ace61165b565b5b5f83015167ffffffffffffffff811115612aec57612aeb61165f565b5b612af885828601612690565b925050602083015167ffffffffffffffff811115612b1957612b1861165f565b5b612b2585828601612690565b915050925092905056fea264697066735822122096dfa9b05fee5b9323d914496450c1a21f67029a9e397a5697aa67accbe5547d64736f6c63430008230033","linkReferences":{}},"methodIdentifiers":{"MAX_ANSWER_LENGTH()":"fd3a8329","MAX_SUBMISSIONS()":"8e789683","bounties(uint256)":"dc2f8744","createBounty(string,string,uint256)":"2bfa7d60","finalizeWinner(uint256,uint256)":"5a7722f1","getBounty(uint256)":"ee8c4bbf","getSubmission(uint256,uint256)":"b7ed7071","judgeAll(uint256,bytes)":"d8964ee9","nextBountyId()":"fd14fad4","submitAnswer(uint256,string)":"01fa3bec"},"id":0}