{"abi":[{"type":"function","name":"MAX_ANSWER_LENGTH","inputs":[],"outputs":[{"name":"","type":"uint256","internalType":"uint256"}],"stateMutability":"view"},{"type":"function","name":"MAX_SUBMISSIONS","inputs":[],"outputs":[{"name":"","type":"uint256","internalType":"uint256"}],"stateMutability":"view"},{"type":"function","name":"bounties","inputs":[{"name":"","type":"uint256","internalType":"uint256"}],"outputs":[{"name":"owner","type":"address","internalType":"address"},{"name":"title","type":"string","internalType":"string"},{"name":"rubric","type":"string","internalType":"string"},{"name":"reward","type":"uint256","internalType":"uint256"},{"name":"submissionDeadline","type":"uint256","internalType":"uint256"},{"name":"revealDeadline","type":"uint256","internalType":"uint256"},{"name":"judged","type":"bool","internalType":"bool"},{"name":"finalized","type":"bool","internalType":"bool"},{"name":"aiReview","type":"bytes","internalType":"bytes"},{"name":"winnerIndex","type":"uint256","internalType":"uint256"}],"stateMutability":"view"},{"type":"function","name":"commitments","inputs":[{"name":"","type":"uint256","internalType":"uint256"},{"name":"","type":"address","internalType":"address"}],"outputs":[{"name":"hash","type":"bytes32","internalType":"bytes32"},{"name":"revealed","type":"bool","internalType":"bool"},{"name":"answer","type":"string","internalType":"string"}],"stateMutability":"view"},{"type":"function","name":"createBounty","inputs":[{"name":"title","type":"string","internalType":"string"},{"name":"rubric","type":"string","internalType":"string"},{"name":"submissionDeadline","type":"uint256","internalType":"uint256"},{"name":"revealDeadline","type":"uint256","internalType":"uint256"}],"outputs":[{"name":"bountyId","type":"uint256","internalType":"uint256"}],"stateMutability":"payable"},{"type":"function","name":"finalizeWinner","inputs":[{"name":"bountyId","type":"uint256","internalType":"uint256"},{"name":"winnerIndex","type":"uint256","internalType":"uint256"}],"outputs":[],"stateMutability":"nonpayable"},{"type":"function","name":"getBounty","inputs":[{"name":"bountyId","type":"uint256","internalType":"uint256"}],"outputs":[{"name":"owner","type":"address","internalType":"address"},{"name":"title","type":"string","internalType":"string"},{"name":"rubric","type":"string","internalType":"string"},{"name":"reward","type":"uint256","internalType":"uint256"},{"name":"submissionDeadline","type":"uint256","internalType":"uint256"},{"name":"revealDeadline","type":"uint256","internalType":"uint256"},{"name":"judged","type":"bool","internalType":"bool"},{"name":"finalized","type":"bool","internalType":"bool"},{"name":"submissionCount","type":"uint256","internalType":"uint256"},{"name":"winnerIndex","type":"uint256","internalType":"uint256"}],"stateMutability":"view"},{"type":"function","name":"getCommitment","inputs":[{"name":"bountyId","type":"uint256","internalType":"uint256"},{"name":"submitter","type":"address","internalType":"address"}],"outputs":[{"name":"hash","type":"bytes32","internalType":"bytes32"},{"name":"revealed","type":"bool","internalType":"bool"},{"name":"answer","type":"string","internalType":"string"}],"stateMutability":"view"},{"type":"function","name":"judgeAll","inputs":[{"name":"bountyId","type":"uint256","internalType":"uint256"},{"name":"llmInput","type":"bytes","internalType":"bytes"}],"outputs":[],"stateMutability":"nonpayable"},{"type":"function","name":"nextBountyId","inputs":[],"outputs":[{"name":"","type":"uint256","internalType":"uint256"}],"stateMutability":"view"},{"type":"function","name":"revealAnswer","inputs":[{"name":"bountyId","type":"uint256","internalType":"uint256"},{"name":"answer","type":"string","internalType":"string"},{"name":"salt","type":"bytes32","internalType":"bytes32"}],"outputs":[],"stateMutability":"nonpayable"},{"type":"function","name":"submitCommitment","inputs":[{"name":"bountyId","type":"uint256","internalType":"uint256"},{"name":"commitment","type":"bytes32","internalType":"bytes32"}],"outputs":[],"stateMutability":"nonpayable"},{"type":"event","name":"AllAnswersJudged","inputs":[{"name":"bountyId","type":"uint256","indexed":true,"internalType":"uint256"},{"name":"aiReview","type":"bytes","indexed":false,"internalType":"bytes"}],"anonymous":false},{"type":"event","name":"AnswerRevealed","inputs":[{"name":"bountyId","type":"uint256","indexed":true,"internalType":"uint256"},{"name":"submitter","type":"address","indexed":true,"internalType":"address"}],"anonymous":false},{"type":"event","name":"BountyCreated","inputs":[{"name":"bountyId","type":"uint256","indexed":true,"internalType":"uint256"},{"name":"owner","type":"address","indexed":true,"internalType":"address"},{"name":"title","type":"string","indexed":false,"internalType":"string"},{"name":"reward","type":"uint256","indexed":false,"internalType":"uint256"}],"anonymous":false},{"type":"event","name":"CommitmentSubmitted","inputs":[{"name":"bountyId","type":"uint256","indexed":true,"internalType":"uint256"},{"name":"submitter","type":"address","indexed":true,"internalType":"address"}],"anonymous":false},{"type":"event","name":"WinnerFinalized","inputs":[{"name":"bountyId","type":"uint256","indexed":true,"internalType":"uint256"},{"name":"winnerIndex","type":"uint256","indexed":false,"internalType":"uint256"},{"name":"winner","type":"address","indexed":false,"internalType":"address"},{"name":"reward","type":"uint256","indexed":false,"internalType":"uint256"}],"anonymous":false}],"bytecode":{"object":"0x608060405260015f553480156012575f5ffd5b50613920806100205f395ff3fe6080604052600436106100a6575f3560e01c8063e31202c011610063578063e31202c0146101cf578063e6a3d9dc146101ff578063e90d4c0614610227578063ee8c4bbf14610265578063fd14fad4146102aa578063fd3a8329146102d4576100a6565b80635a7722f1146100aa57806389fb2682146100d25780638e78968314610110578063d5198a711461013a578063d8964ee914610162578063dc2f87441461018a575b5f5ffd5b3480156100b5575f5ffd5b506100d060048036038101906100cb9190611d0f565b6102fe565b005b3480156100dd575f5ffd5b506100f860048036038101906100f39190611da7565b61077d565b60405161010793929190611e87565b60405180910390f35b34801561011b575f5ffd5b506101246108a8565b6040516101319190611ed2565b60405180910390f35b348015610145575f5ffd5b50610160600480360381019061015b9190611f76565b6108ad565b005b34801561016d575f5ffd5b506101886004803603810190610183919061203c565b610c13565b005b348015610195575f5ffd5b506101b060048036038101906101ab9190612099565b611091565b6040516101c69a99989796959493929190612125565b60405180910390f35b6101e960048036038101906101e491906121d4565b6112ab565b6040516101f69190611ed2565b60405180910390f35b34801561020a575f5ffd5b5061022560048036038101906102209190612277565b6114a8565b005b348015610232575f5ffd5b5061024d60048036038101906102489190611da7565b61184e565b60405161025c93929190611e87565b60405180910390f35b348015610270575f5ffd5b5061028b60048036038101906102869190612099565b611911565b6040516102a19a999897969594939291906122b5565b60405180910390f35b3480156102b5575f5ffd5b506102be611b72565b6040516102cb9190611ed2565b60405180910390f35b3480156102df575f5ffd5b506102e8611b77565b6040516102f59190611ed2565b60405180910390f35b815f73ffffffffffffffffffffffffffffffffffffffff1660015f8381526020019081526020015f205f015f9054906101000a900473ffffffffffffffffffffffffffffffffffffffff1673ffffffffffffffffffffffffffffffffffffffff160361039f576040517f08c379a0000000000000000000000000000000000000000000000000000000008152600401610396906123a7565b60405180910390fd5b8260015f8281526020019081526020015f205f015f9054906101000a900473ffffffffffffffffffffffffffffffffffffffff1673ffffffffffffffffffffffffffffffffffffffff163373ffffffffffffffffffffffffffffffffffffffff1614610440576040517f08c379a00000000000000000000000000000000000000000000000000000000081526004016104379061240f565b60405180910390fd5b5f60015f8681526020019081526020015f209050806006015f9054906101000a900460ff166104a4576040517f08c379a000000000000000000000000000000000000000000000000000000000815260040161049b90612477565b60405180910390fd5b8060060160019054906101000a900460ff16156104f6576040517f08c379a00000000000000000000000000000000000000000000000000000000081526004016104ed906124df565b60405180910390fd5b8060090180549050841061053f576040517f08c379a000000000000000000000000000000000000000000000000000000000815260040161053690612547565b60405180910390fd5b60025f8681526020019081526020015f205f82600901868154811061056757610566612565565b5b905f5260205f20015f9054906101000a900473ffffffffffffffffffffffffffffffffffffffff1673ffffffffffffffffffffffffffffffffffffffff1673ffffffffffffffffffffffffffffffffffffffff1681526020019081526020015f206001015f9054906101000a900460ff16610617576040517f08c379a000000000000000000000000000000000000000000000000000000000815260040161060e906125dc565b60405180910390fd5b60018160060160016101000a81548160ff0219169083151502179055508381600801819055505f81600901858154811061065457610653612565565b5b905f5260205f20015f9054906101000a900473ffffffffffffffffffffffffffffffffffffffff1690505f826003015490505f83600301819055505f8273ffffffffffffffffffffffffffffffffffffffff16826040516106b490612627565b5f6040518083038185875af1925050503d805f81146106ee576040519150601f19603f3d011682016040523d82523d5f602084013e6106f3565b606091505b5050905080610737576040517f08c379a000000000000000000000000000000000000000000000000000000000815260040161072e90612685565b60405180910390fd5b877f2eb0120759ae6dd1505f3f092609ec7e75433fb2401ad648ebeb5bd4bd55e5b688858560405161076b939291906126a3565b60405180910390a25050505050505050565b5f5f60605f60025f8781526020019081526020015f205f8673ffffffffffffffffffffffffffffffffffffffff1673ffffffffffffffffffffffffffffffffffffffff1681526020019081526020015f209050805f0154816001015f9054906101000a900460ff16826001015f9054906101000a900460ff1661080e5760405180602001604052805f81525061089a565b82600201805461081d90612705565b80601f016020809104026020016040519081016040528092919081815260200182805461084990612705565b80156108945780601f1061086b57610100808354040283529160200191610894565b820191905f5260205f20905b81548152906001019060200180831161087757829003601f168201915b50505050505b935093509350509250925092565b600a81565b835f73ffffffffffffffffffffffffffffffffffffffff1660015f8381526020019081526020015f205f015f9054906101000a900473ffffffffffffffffffffffffffffffffffffffff1673ffffffffffffffffffffffffffffffffffffffff160361094e576040517f08c379a0000000000000000000000000000000000000000000000000000000008152600401610945906123a7565b60405180910390fd5b5f60015f8781526020019081526020015f20905080600401544210156109a9576040517f08c379a00000000000000000000000000000000000000000000000000000000081526004016109a09061277f565b60405180910390fd5b806005015442106109ef576040517f08c379a00000000000000000000000000000000000000000000000000000000081526004016109e6906127e7565b60405180910390fd5b5f60025f8881526020019081526020015f205f3373ffffffffffffffffffffffffffffffffffffffff1673ffffffffffffffffffffffffffffffffffffffff1681526020019081526020015f2090505f5f1b815f015403610a85576040517f08c379a0000000000000000000000000000000000000000000000000000000008152600401610a7c9061284f565b60405180910390fd5b806001015f9054906101000a900460ff1615610ad6576040517f08c379a0000000000000000000000000000000000000000000000000000000008152600401610acd906128b7565b60405180910390fd5b6107d0868690501115610b1e576040517f08c379a0000000000000000000000000000000000000000000000000000000008152600401610b159061291f565b60405180910390fd5b5f868686338b604051602001610b389594939291906129fe565b604051602081830303815290604052805190602001209050815f01548114610b95576040517f08c379a0000000000000000000000000000000000000000000000000000000008152600401610b8c90612a93565b60405180910390fd5b6001826001015f6101000a81548160ff0219169083151502179055508686836002019182610bc4929190612c99565b503373ffffffffffffffffffffffffffffffffffffffff16887f6f30d8f6c98d8fa219bfafa662ad220e3b7d642ea3fe8a284b9692cfcb894edb60405160405180910390a35050505050505050565b825f73ffffffffffffffffffffffffffffffffffffffff1660015f8381526020019081526020015f205f015f9054906101000a900473ffffffffffffffffffffffffffffffffffffffff1673ffffffffffffffffffffffffffffffffffffffff1603610cb4576040517f08c379a0000000000000000000000000000000000000000000000000000000008152600401610cab906123a7565b60405180910390fd5b8360015f8281526020019081526020015f205f015f9054906101000a900473ffffffffffffffffffffffffffffffffffffffff1673ffffffffffffffffffffffffffffffffffffffff163373ffffffffffffffffffffffffffffffffffffffff1614610d55576040517f08c379a0000000000000000000000000000000000000000000000000000000008152600401610d4c9061240f565b60405180910390fd5b5f60015f8781526020019081526020015f2090508060050154421015610db0576040517f08c379a0000000000000000000000000000000000000000000000000000000008152600401610da790612db0565b60405180910390fd5b806006015f9054906101000a900460ff1615610e01576040517f08c379a0000000000000000000000000000000000000000000000000000000008152600401610df890612e18565b60405180910390fd5b8060060160019054906101000a900460ff1615610e53576040517f08c379a0000000000000000000000000000000000000000000000000000000008152600401610e4a906124df565b60405180910390fd5b5f5f90505f5f90505b8260090180549050811015610f255760025f8981526020019081526020015f205f846009018381548110610e9357610e92612565565b5b905f5260205f20015f9054906101000a900473ffffffffffffffffffffffffffffffffffffffff1673ffffffffffffffffffffffffffffffffffffffff1673ffffffffffffffffffffffffffffffffffffffff1681526020019081526020015f206001015f9054906101000a900460ff1615610f18578180610f1490612e63565b9250505b8080600101915050610e5c565b505f8111610f68576040517f08c379a0000000000000000000000000000000000000000000000000000000008152600401610f5f90612ef4565b60405180910390fd5b5f610fb861080288888080601f0160208091040260200160405190810160405280939291908181526020018383808284375f81840152601f19601f82011690508083019250505050505050611b7d565b90505f5f5f83806020019051810190610fd19190613184565b50935050925092508215819061101d576040517f08c379a0000000000000000000000000000000000000000000000000000000008152600401611014919061326b565b60405180910390fd5b506001866006015f6101000a81548160ff0219169083151502179055508186600701908161104b91906132f0565b508a7fb51288ae628dca25614026175dc22a78631acc1a31f034c68c3fa241ca0fd05c8360405161107c91906133bf565b60405180910390a25050505050505050505050565b6001602052805f5260405f205f91509050805f015f9054906101000a900473ffffffffffffffffffffffffffffffffffffffff16908060010180546110d590612705565b80601f016020809104026020016040519081016040528092919081815260200182805461110190612705565b801561114c5780601f106111235761010080835404028352916020019161114c565b820191905f5260205f20905b81548152906001019060200180831161112f57829003601f168201915b50505050509080600201805461116190612705565b80601f016020809104026020016040519081016040528092919081815260200182805461118d90612705565b80156111d85780601f106111af576101008083540402835291602001916111d8565b820191905f5260205f20905b8154815290600101906020018083116111bb57829003601f168201915b505050505090806003015490806004015490806005015490806006015f9054906101000a900460ff16908060060160019054906101000a900460ff169080600701805461122490612705565b80601f016020809104026020016040519081016040528092919081815260200182805461125090612705565b801561129b5780601f106112725761010080835404028352916020019161129b565b820191905f5260205f20905b81548152906001019060200180831161127e57829003601f168201915b505050505090806008015490508a565b5f5f34116112ee576040517f08c379a00000000000000000000000000000000000000000000000000000000081526004016112e590613429565b60405180910390fd5b428311611330576040517f08c379a0000000000000000000000000000000000000000000000000000000008152600401611327906134b7565b60405180910390fd5b828211611372576040517f08c379a000000000000000000000000000000000000000000000000000000000815260040161136990613545565b60405180910390fd5b5f5f81548092919061138390612e63565b9190505590505f60015f8381526020019081526020015f20905033815f015f6101000a81548173ffffffffffffffffffffffffffffffffffffffff021916908373ffffffffffffffffffffffffffffffffffffffff16021790555087878260010191826113f1929190612c99565b508585826002019182611405929190612c99565b503481600301819055508381600401819055508281600501819055507fffffffffffffffffffffffffffffffffffffffffffffffffffffffffffffffff81600801819055503373ffffffffffffffffffffffffffffffffffffffff16827f64b439309954f148e681118e8f6556d39f6204a461e3307190a6928618ff26558a8a346040516114959392919061358f565b60405180910390a3509695505050505050565b815f73ffffffffffffffffffffffffffffffffffffffff1660015f8381526020019081526020015f205f015f9054906101000a900473ffffffffffffffffffffffffffffffffffffffff1673ffffffffffffffffffffffffffffffffffffffff1603611549576040517f08c379a0000000000000000000000000000000000000000000000000000000008152600401611540906123a7565b60405180910390fd5b5f60015f8581526020019081526020015f209050806004015442106115a3576040517f08c379a000000000000000000000000000000000000000000000000000000000815260040161159a90613609565b60405180910390fd5b806006015f9054906101000a900460ff161580156115d057508060060160019054906101000a900460ff16155b61160f576040517f08c379a000000000000000000000000000000000000000000000000000000000815260040161160690613671565b60405180910390fd5b5f5f1b60025f8681526020019081526020015f205f3373ffffffffffffffffffffffffffffffffffffffff1673ffffffffffffffffffffffffffffffffffffffff1681526020019081526020015f205f0154146116a1576040517f08c379a0000000000000000000000000000000000000000000000000000000008152600401611698906136d9565b60405180910390fd5b600a8160090180549050106116eb576040517f08c379a00000000000000000000000000000000000000000000000000000000081526004016116e290613741565b60405180910390fd5b60405180606001604052808481526020015f1515815260200160405180602001604052805f81525081525060025f8681526020019081526020015f205f3373ffffffffffffffffffffffffffffffffffffffff1673ffffffffffffffffffffffffffffffffffffffff1681526020019081526020015f205f820151815f01556020820151816001015f6101000a81548160ff021916908315150217905550604082015181600201908161179e919061375f565b509050508060090133908060018154018082558091505060019003905f5260205f20015f9091909190916101000a81548173ffffffffffffffffffffffffffffffffffffffff021916908373ffffffffffffffffffffffffffffffffffffffff1602179055503373ffffffffffffffffffffffffffffffffffffffff16847f22d30f6da93667100b64d15e5ea70afec217caeab1008706f57bfa4deed12c6360405160405180910390a350505050565b6002602052815f5260405f20602052805f5260405f205f9150915050805f015490806001015f9054906101000a900460ff169080600201805461189090612705565b80601f01602080910402602001604051908101604052809291908181526020018280546118bc90612705565b80156119075780601f106118de57610100808354040283529160200191611907565b820191905f5260205f20905b8154815290600101906020018083116118ea57829003601f168201915b5050505050905083565b5f6060805f5f5f5f5f5f5f8a5f73ffffffffffffffffffffffffffffffffffffffff1660015f8381526020019081526020015f205f015f9054906101000a900473ffffffffffffffffffffffffffffffffffffffff1673ffffffffffffffffffffffffffffffffffffffff16036119bd576040517f08c379a00000000000000000000000000000000000000000000000000000000081526004016119b4906123a7565b60405180910390fd5b5f60015f8e81526020019081526020015f209050805f015f9054906101000a900473ffffffffffffffffffffffffffffffffffffffff168160010182600201836003015484600401548560050154866006015f9054906101000a900460ff168760060160019054906101000a900460ff1688600901805490508960080154888054611a4790612705565b80601f0160208091040260200160405190810160405280929190818152602001828054611a7390612705565b8015611abe5780601f10611a9557610100808354040283529160200191611abe565b820191905f5260205f20905b815481529060010190602001808311611aa157829003601f168201915b50505050509850878054611ad190612705565b80601f0160208091040260200160405190810160405280929190818152602001828054611afd90612705565b8015611b485780601f10611b1f57610100808354040283529160200191611b48565b820191905f5260205f20905b815481529060010190602001808311611b2b57829003601f168201915b505050505097509b509b509b509b509b509b509b509b509b509b5050509193959799509193959799565b5f5481565b6107d081565b60605f5f8473ffffffffffffffffffffffffffffffffffffffff1684604051611ba6919061385e565b5f604051808303815f865af19150503d805f8114611bdf576040519150601f19603f3d011682016040523d82523d5f602084013e611be4565b606091505b509150915081611bf657805160208201fd5b61080173ffffffffffffffffffffffffffffffffffffffff168573ffffffffffffffffffffffffffffffffffffffff161480611c5f575061080273ffffffffffffffffffffffffffffffffffffffff168573ffffffffffffffffffffffffffffffffffffffff16145b80611c97575061081b73ffffffffffffffffffffffffffffffffffffffff168573ffffffffffffffffffffffffffffffffffffffff16145b15611cbf575f81806020019051810190611cb19190613874565b915050809350505050611cc5565b80925050505b92915050565b5f604051905090565b5f5ffd5b5f5ffd5b5f819050919050565b611cee81611cdc565b8114611cf8575f5ffd5b50565b5f81359050611d0981611ce5565b92915050565b5f5f60408385031215611d2557611d24611cd4565b5b5f611d3285828601611cfb565b9250506020611d4385828601611cfb565b9150509250929050565b5f73ffffffffffffffffffffffffffffffffffffffff82169050919050565b5f611d7682611d4d565b9050919050565b611d8681611d6c565b8114611d90575f5ffd5b50565b5f81359050611da181611d7d565b92915050565b5f5f60408385031215611dbd57611dbc611cd4565b5b5f611dca85828601611cfb565b9250506020611ddb85828601611d93565b9150509250929050565b5f819050919050565b611df781611de5565b82525050565b5f8115159050919050565b611e1181611dfd565b82525050565b5f81519050919050565b5f82825260208201905092915050565b8281835e5f83830152505050565b5f601f19601f8301169050919050565b5f611e5982611e17565b611e638185611e21565b9350611e73818560208601611e31565b611e7c81611e3f565b840191505092915050565b5f606082019050611e9a5f830186611dee565b611ea76020830185611e08565b8181036040830152611eb98184611e4f565b9050949350505050565b611ecc81611cdc565b82525050565b5f602082019050611ee55f830184611ec3565b92915050565b5f5ffd5b5f5ffd5b5f5ffd5b5f5f83601f840112611f0c57611f0b611eeb565b5b8235905067ffffffffffffffff811115611f2957611f28611eef565b5b602083019150836001820283011115611f4557611f44611ef3565b5b9250929050565b611f5581611de5565b8114611f5f575f5ffd5b50565b5f81359050611f7081611f4c565b92915050565b5f5f5f5f60608587031215611f8e57611f8d611cd4565b5b5f611f9b87828801611cfb565b945050602085013567ffffffffffffffff811115611fbc57611fbb611cd8565b5b611fc887828801611ef7565b93509350506040611fdb87828801611f62565b91505092959194509250565b5f5f83601f840112611ffc57611ffb611eeb565b5b8235905067ffffffffffffffff81111561201957612018611eef565b5b60208301915083600182028301111561203557612034611ef3565b5b9250929050565b5f5f5f6040848603121561205357612052611cd4565b5b5f61206086828701611cfb565b935050602084013567ffffffffffffffff81111561208157612080611cd8565b5b61208d86828701611fe7565b92509250509250925092565b5f602082840312156120ae576120ad611cd4565b5b5f6120bb84828501611cfb565b91505092915050565b6120cd81611d6c565b82525050565b5f81519050919050565b5f82825260208201905092915050565b5f6120f7826120d3565b61210181856120dd565b9350612111818560208601611e31565b61211a81611e3f565b840191505092915050565b5f610140820190506121395f83018d6120c4565b818103602083015261214b818c611e4f565b9050818103604083015261215f818b611e4f565b905061216e606083018a611ec3565b61217b6080830189611ec3565b61218860a0830188611ec3565b61219560c0830187611e08565b6121a260e0830186611e08565b8181036101008301526121b581856120ed565b90506121c5610120830184611ec3565b9b9a5050505050505050505050565b5f5f5f5f5f5f608087890312156121ee576121ed611cd4565b5b5f87013567ffffffffffffffff81111561220b5761220a611cd8565b5b61221789828a01611ef7565b9650965050602087013567ffffffffffffffff81111561223a57612239611cd8565b5b61224689828a01611ef7565b9450945050604061225989828a01611cfb565b925050606061226a89828a01611cfb565b9150509295509295509295565b5f5f6040838503121561228d5761228c611cd4565b5b5f61229a85828601611cfb565b92505060206122ab85828601611f62565b9150509250929050565b5f610140820190506122c95f83018d6120c4565b81810360208301526122db818c611e4f565b905081810360408301526122ef818b611e4f565b90506122fe606083018a611ec3565b61230b6080830189611ec3565b61231860a0830188611ec3565b61232560c0830187611e08565b61233260e0830186611e08565b612340610100830185611ec3565b61234e610120830184611ec3565b9b9a5050505050505050505050565b7f626f756e7479206e6f7420666f756e64000000000000000000000000000000005f82015250565b5f612391601083611e21565b915061239c8261235d565b602082019050919050565b5f6020820190508181035f8301526123be81612385565b9050919050565b7f6e6f7420626f756e7479206f776e6572000000000000000000000000000000005f82015250565b5f6123f9601083611e21565b9150612404826123c5565b602082019050919050565b5f6020820190508181035f830152612426816123ed565b9050919050565b7f6e6f74206a7564676564207965740000000000000000000000000000000000005f82015250565b5f612461600e83611e21565b915061246c8261242d565b602082019050919050565b5f6020820190508181035f83015261248e81612455565b9050919050565b7f616c72656164792066696e616c697a65640000000000000000000000000000005f82015250565b5f6124c9601183611e21565b91506124d482612495565b602082019050919050565b5f6020820190508181035f8301526124f6816124bd565b9050919050565b7f696e76616c69642077696e6e657220696e6465780000000000000000000000005f82015250565b5f612531601483611e21565b915061253c826124fd565b602082019050919050565b5f6020820190508181035f83015261255e81612525565b9050919050565b7f4e487b71000000000000000000000000000000000000000000000000000000005f52603260045260245ffd5b7f77696e6e6572206e6f742072657665616c6564000000000000000000000000005f82015250565b5f6125c6601383611e21565b91506125d182612592565b602082019050919050565b5f6020820190508181035f8301526125f3816125ba565b9050919050565b5f81905092915050565b50565b5f6126125f836125fa565b915061261d82612604565b5f82019050919050565b5f61263182612607565b9150819050919050565b7f7061796d656e74206661696c65640000000000000000000000000000000000005f82015250565b5f61266f600e83611e21565b915061267a8261263b565b602082019050919050565b5f6020820190508181035f83015261269c81612663565b9050919050565b5f6060820190506126b65f830186611ec3565b6126c360208301856120c4565b6126d06040830184611ec3565b949350505050565b7f4e487b71000000000000000000000000000000000000000000000000000000005f52602260045260245ffd5b5f600282049050600182168061271c57607f821691505b60208210810361272f5761272e6126d8565b5b50919050565b7f72657665616c207068617365206e6f74207374617274656400000000000000005f82015250565b5f612769601883611e21565b915061277482612735565b602082019050919050565b5f6020820190508181035f8301526127968161275d565b9050919050565b7f72657665616c20706861736520636c6f736564000000000000000000000000005f82015250565b5f6127d1601383611e21565b91506127dc8261279d565b602082019050919050565b5f6020820190508181035f8301526127fe816127c5565b9050919050565b7f6e6f20636f6d6d69746d656e7420666f756e64000000000000000000000000005f82015250565b5f612839601383611e21565b915061284482612805565b602082019050919050565b5f6020820190508181035f8301526128668161282d565b9050919050565b7f616c72656164792072657665616c6564000000000000000000000000000000005f82015250565b5f6128a1601083611e21565b91506128ac8261286d565b602082019050919050565b5f6020820190508181035f8301526128ce81612895565b9050919050565b7f616e7377657220746f6f206c6f6e6700000000000000000000000000000000005f82015250565b5f612909600f83611e21565b9150612914826128d5565b602082019050919050565b5f6020820190508181035f830152612936816128fd565b9050919050565b5f81905092915050565b828183375f83830152505050565b5f612960838561293d565b935061296d838584612947565b82840190509392505050565b5f819050919050565b61299361298e82611de5565b612979565b82525050565b5f8160601b9050919050565b5f6129af82612999565b9050919050565b5f6129c0826129a5565b9050919050565b6129d86129d382611d6c565b6129b6565b82525050565b5f819050919050565b6129f86129f382611cdc565b6129de565b82525050565b5f612a0a828789612955565b9150612a168286612982565b602082019150612a2682856129c7565b601482019150612a3682846129e7565b6020820191508190509695505050505050565b7f636f6d6d69746d656e74206d69736d61746368000000000000000000000000005f82015250565b5f612a7d601383611e21565b9150612a8882612a49565b602082019050919050565b5f6020820190508181035f830152612aaa81612a71565b9050919050565b5f82905092915050565b7f4e487b71000000000000000000000000000000000000000000000000000000005f52604160045260245ffd5b5f819050815f5260205f209050919050565b5f6020601f8301049050919050565b5f82821b905092915050565b5f60088302612b447fffffffffffffffffffffffffffffffffffffffffffffffffffffffffffffffff82612b09565b612b4e8683612b09565b95508019841693508086168417925050509392505050565b5f819050919050565b5f612b89612b84612b7f84611cdc565b612b66565b611cdc565b9050919050565b5f819050919050565b612ba283612b6f565b612bb6612bae82612b90565b848454612b15565b825550505050565b5f5f905090565b612bcd612bbe565b612bd8818484612b99565b505050565b5f5b82811015612bfe57612bf35f828401612bc5565b600181019050612bdf565b505050565b601f821115612c515782821115612c5057612c1d81612ae8565b612c2683612afa565b612c2f85612afa565b6020861015612c3c575f90505b808301612c4b82840382612bdd565b505050505b5b505050565b5f82821c905092915050565b5f612c715f1984600802612c56565b1980831691505092915050565b5f612c898383612c62565b9150826002028217905092915050565b612ca38383612ab1565b67ffffffffffffffff811115612cbc57612cbb612abb565b5b612cc68254612705565b612cd1828285612c03565b5f601f831160018114612cfe575f8415612cec578287013590505b612cf68582612c7e565b865550612d5d565b601f198416612d0c86612ae8565b5f5b82811015612d3357848901358255600182019150602085019450602081019050612d0e565b86831015612d505784890135612d4c601f891682612c62565b8355505b6001600288020188555050505b50505050505050565b7f72657665616c207068617365206e6f74206f76657200000000000000000000005f82015250565b5f612d9a601583611e21565b9150612da582612d66565b602082019050919050565b5f6020820190508181035f830152612dc781612d8e565b9050919050565b7f616c7265616479206a75646765640000000000000000000000000000000000005f82015250565b5f612e02600e83611e21565b9150612e0d82612dce565b602082019050919050565b5f6020820190508181035f830152612e2f81612df6565b9050919050565b7f4e487b71000000000000000000000000000000000000000000000000000000005f52601160045260245ffd5b5f612e6d82611cdc565b91507fffffffffffffffffffffffffffffffffffffffffffffffffffffffffffffffff8203612e9f57612e9e612e36565b5b600182019050919050565b7f6e6f2072657665616c6564207375626d697373696f6e730000000000000000005f82015250565b5f612ede601783611e21565b9150612ee982612eaa565b602082019050919050565b5f6020820190508181035f830152612f0b81612ed2565b9050919050565b612f1b81611dfd565b8114612f25575f5ffd5b50565b5f81519050612f3681612f12565b92915050565b5f5ffd5b612f4982611e3f565b810181811067ffffffffffffffff82111715612f6857612f67612abb565b5b80604052505050565b5f612f7a611ccb565b9050612f868282612f40565b919050565b5f67ffffffffffffffff821115612fa557612fa4612abb565b5b612fae82611e3f565b9050602081019050919050565b5f612fcd612fc884612f8b565b612f71565b905082815260208101848484011115612fe957612fe8612f3c565b5b612ff4848285611e31565b509392505050565b5f82601f8301126130105761300f611eeb565b5b8151613020848260208601612fbb565b91505092915050565b5f67ffffffffffffffff82111561304357613042612abb565b5b61304c82611e3f565b9050602081019050919050565b5f61306b61306684613029565b612f71565b90508281526020810184848401111561308757613086612f3c565b5b613092848285611e31565b509392505050565b5f82601f8301126130ae576130ad611eeb565b5b81516130be848260208601613059565b91505092915050565b5f5ffd5b5f5ffd5b5f606082840312156130e4576130e36130c7565b5b6130ee6060612f71565b90505f82015167ffffffffffffffff81111561310d5761310c6130cb565b5b6131198482850161309a565b5f83015250602082015167ffffffffffffffff81111561313c5761313b6130cb565b5b6131488482850161309a565b602083015250604082015167ffffffffffffffff81111561316c5761316b6130cb565b5b6131788482850161309a565b60408301525092915050565b5f5f5f5f5f60a0868803121561319d5761319c611cd4565b5b5f6131aa88828901612f28565b955050602086015167ffffffffffffffff8111156131cb576131ca611cd8565b5b6131d788828901612ffc565b945050604086015167ffffffffffffffff8111156131f8576131f7611cd8565b5b61320488828901612ffc565b935050606086015167ffffffffffffffff81111561322557613224611cd8565b5b6132318882890161309a565b925050608086015167ffffffffffffffff81111561325257613251611cd8565b5b61325e888289016130cf565b9150509295509295909350565b5f6020820190508181035f8301526132838184611e4f565b905092915050565b5f819050815f5260205f209050919050565b601f8211156132eb57828211156132ea576132b78161328b565b6132c083612afa565b6132c985612afa565b60208610156132d6575f90505b8083016132e582840382612bdd565b505050505b5b505050565b6132f9826120d3565b67ffffffffffffffff81111561331257613311612abb565b5b61331c8254612705565b61332782828561329d565b5f60209050601f831160018114613358575f8415613346578287015190505b6133508582612c7e565b8655506133b7565b601f1984166133668661328b565b5f5b8281101561338d57848901518255600182019150602085019450602081019050613368565b868310156133aa57848901516133a6601f891682612c62565b8355505b6001600288020188555050505b505050505050565b5f6020820190508181035f8301526133d781846120ed565b905092915050565b7f72657761726420726571756972656400000000000000000000000000000000005f82015250565b5f613413600f83611e21565b915061341e826133df565b602082019050919050565b5f6020820190508181035f83015261344081613407565b9050919050565b7f7375626d697373696f6e20646561646c696e65206d75737420626520667574755f8201527f7265000000000000000000000000000000000000000000000000000000000000602082015250565b5f6134a1602283611e21565b91506134ac82613447565b604082019050919050565b5f6020820190508181035f8301526134ce81613495565b9050919050565b7f72657665616c20646561646c696e65206d7573742062652061667465722073755f8201527f626d697373696f6e000000000000000000000000000000000000000000000000602082015250565b5f61352f602883611e21565b915061353a826134d5565b604082019050919050565b5f6020820190508181035f83015261355c81613523565b9050919050565b5f61356e8385611e21565b935061357b838584612947565b61358483611e3f565b840190509392505050565b5f6040820190508181035f8301526135a8818587613563565b90506135b76020830184611ec3565b949350505050565b7f7375626d697373696f6e20706861736520636c6f7365640000000000000000005f82015250565b5f6135f3601783611e21565b91506135fe826135bf565b602082019050919050565b5f6020820190508181035f830152613620816135e7565b9050919050565b7f626f756e747920636c6f736564000000000000000000000000000000000000005f82015250565b5f61365b600d83611e21565b915061366682613627565b602082019050919050565b5f6020820190508181035f8301526136888161364f565b9050919050565b7f616c7265616479207375626d69747465640000000000000000000000000000005f82015250565b5f6136c3601183611e21565b91506136ce8261368f565b602082019050919050565b5f6020820190508181035f8301526136f0816136b7565b9050919050565b7f6d6178207375626d697373696f6e7320726561636865640000000000000000005f82015250565b5f61372b601783611e21565b9150613736826136f7565b602082019050919050565b5f6020820190508181035f8301526137588161371f565b9050919050565b61376882611e17565b67ffffffffffffffff81111561378157613780612abb565b5b61378b8254612705565b613796828285612c03565b5f60209050601f8311600181146137c7575f84156137b5578287015190505b6137bf8582612c7e565b865550613826565b601f1984166137d586612ae8565b5f5b828110156137fc578489015182556001820191506020850194506020810190506137d7565b868310156138195784890151613815601f891682612c62565b8355505b6001600288020188555050505b505050505050565b5f613838826120d3565b61384281856125fa565b9350613852818560208601611e31565b80840191505092915050565b5f613869828461382e565b915081905092915050565b5f5f6040838503121561388a57613889611cd4565b5b5f83015167ffffffffffffffff8111156138a7576138a6611cd8565b5b6138b385828601612ffc565b925050602083015167ffffffffffffffff8111156138d4576138d3611cd8565b5b6138e085828601612ffc565b915050925092905056fea26469706673582212202c978bd66e7a4e8ada7fc3e76f0b82af7ac02c74b9d8263251211c93bebe702a64736f6c63430008230033","linkReferences":{}},"methodIdentifiers":{"MAX_ANSWER_LENGTH()":"fd3a8329","MAX_SUBMISSIONS()":"8e789683","bounties(uint256)":"dc2f8744","commitments(uint256,address)":"e90d4c06","createBounty(string,string,uint256,uint256)":"e31202c0","finalizeWinner(uint256,uint256)":"5a7722f1","getBounty(uint256)":"ee8c4bbf","getCommitment(uint256,address)":"89fb2682","judgeAll(uint256,bytes)":"d8964ee9","nextBountyId()":"fd14fad4","revealAnswer(uint256,string,bytes32)":"d5198a71","submitCommitment(uint256,bytes32)":"e6a3d9dc"},"id":1}